:1000000066C0B5C287C086C008C284C083C053C35F
:100010002EC380C07FC07EC07DC063C27BC07AC05B
:1000200079C078C077C0434647206E6F2046206273
:1000300065666F72652068656C700A004B455920D3
:100040007265672046004572726F720A00726573AE
:100050003A2072657365740A0021207878203A206E
:1000600053657420636F6E66696720746F206865DE
:10007000782076616C7565207878200A00436F6D72
:100080006D616E64730A3F3A2053686F770A683A6D
:100090002068656C700A00434647206E6F77004306
:1000A0004647206E657874004B45595441502047AF
:1000B000656E657269632076312E30204A4D20329C
:1000C0003031370A00434647204C6F6164001124E9
:1000D0001FBECFEDCDBF8DE790E09BBD8ABD8EB535
:1000E0008B608EBD89B7806489BF10E0A0E6B0E068
:1000F000EEEBF7E002C005900D92A236B107D9F7FA
:1001000020E0A2E6B0E001C01D92A23CB207E1F7F8
:1001100001D153C375CF8091740024D380917400B2
:100120008093730080FF03C096988E9A01C08E98CA
:100130008091730081FF03C0C198B99A01C0B9983A
:100140008091730082FF03C0C398BB9A01C0BB9823
:100150008091730083FF03C094988C9A01C08C989F
:100160008091730084FF03C0C098B89A01C0B8980A
:100170008091730085FF03C0C298BA9A01C0BA98F3
:100180008091730086FF03C0C498BC9A01C0BC98DC
:100190008091730087FF03C095988D9A01C08D9858
:1001A00041D28111FDCF85EC90E02FD28091730078
:1001B000A7D2BCD284EF91E025C1789408D288EA16
:1001C00090E023D247C12ED28111FDCF8FE990E07C
:1001D0001CD28091740094D2A9C224D28111FDCF87
:1001E00087E990E012D2809173008AD29FC21AD21E
:1001F0008111FDCF8DE790E008D214D28111FDCF9F
:1002000089E590E002D20ED28111FDCF8DE490E01D
:10021000FCC108D28111FDCF86E490E0F6C1CF93F6
:10022000C82F00D28111FDCF8CE390E0EED18C2F4E
:1002300067D2CF917BC20F931F93CF93FC01908124
:100240009F3349F120F49132D9F591E005C09836F9
:1002500039F1923749F134C08F01090F111DD801CE
:100260008C91803211F49F5FF7CF62D2C82F8F3FFD
:1002700071F0F80181815CD28F3F49F0C295C07F57
:100280008C0F80937400CF911F910F919CCFCF91D1
:100290001F910F91BECF97DFCF911F910F919DCFEF
:1002A000CF911F910F91A3CF8181853649F482812F
:1002B000833731F4E1D02FDFCF911F910F91DCC054
:1002C000CF911F910F910895B6D1882311F1BCD120
:1002D000E09172008A3029F08D3019F0883079F47D
:1002E0000AC0F0E0EE59FF4F108282E690E0A3DFF3
:1002F000109272000895EE2361F0E15008C0EF30D3
:1003000040F4AE2FB0E0AE59BF4F8C93EF5FE09357
:10031000720008951F92CDB7DD274FDF20D2809362
:100320007400F9DEB12CE12CF12C10E0CC24C39444
:10033000D12CCADFCE010196A6D0882309F455C07E
:100340008981082F069580FD4CC00F3551F5F39437
:1003500083E0F81255C0112301F1809174009FEFE2
:10036000910F983048F49FEF910F960101C0220F32
:100370009A95EAF7822B0DC095EF910F983048F4CB
:1003800095EF910F960101C0220F9A95EAF72095FB
:1003900082238093740017DF33C086E290E035D16A
:1003A0002FC0063439F4E39483E0E81206C015DF69
:1003B0000ADF03C0F12C10E023C0F12C10E080EB29
:1003C000800F8A3040F4B11002C011EB01C01BEB6A
:1003D000100F812F24DF0056023038F4BB24B39471
:1003E00004C00056023008F4B12C61D0811193DEB4
:1003F0006BD0882309F49DCF109274008CDE99CFC6
:10040000E12CDDCF9093760080937500809175008C
:1004100090917600892BD1F708951F920F920FB615
:100420000F9211248F939F93809175009091760085
:10043000892B49F0809175009091760001979093F7
:100440007600809375009F918F910F900FBE0F9053
:100450001F90189580B7826080BF83B7826083BF8A
:1004600089E186BF89B7816089BF85B7826085BF12
:100470008BB780648BBF0895D19AD99884EF91E0AF
:10048000C1DFD1980895FC0190917D00892F817082
:1004900090FF0CC09FB7F89480917C00808380917E
:1004A0007D008E7F80937D009FBF81E008959091B5
:1004B0007D00892F827091FF06C080917D008D7F25
:1004C00080937D0081E0089590917D00892F847054
:1004D00092FF06C080917D008B7F80937D0081E03C
:1004E00008951F920F920FB60F9211242F933F93EE
:1004F0008F939F9380917B00882319F08150809384
:100500007B0080916000C99B06C010927A00109217
:1005100079008FEF21C0882349F081508C3E80F410
:1005200090917D00926090937D000AC08091790047
:1005300090917A00019690937A00809379008FEFE2
:100540002091790030917A002139314028F0909142
:100550007D00946090937D00809360009F918F91C7
:100560003F912F910F900FBE0F901F9018951F92E3
:100570000F920FB60F9211242F938F939F93809118
:100580007800880FC89981608093780090917700F7
:1005900020917B00222311F09F5F01C091E027E0B2
:1005A00020937B00983049F490917D009160909366
:1005B0007D00809580937C0090E0909377009F91E0
:1005C0008F912F910F900FBE0F901F9018958AB1A9
:1005D00088698AB983B1866083B912B883E389B91F
:1005E00008952FB7F8945D9B02C08CB90CC0909110
:1005F0009F00E92FF0E0E258FF4F80839F5F9F71DB
:1006000090939F00559A2FBF0895CF93DF93EC01ED
:10061000FE018491882319F0E4DF2196F9CFDF9160
:10062000CF91089520919F0090919E0081E0291321
:1006300001C080E008952091C1009091C00081E048
:10064000291301C080E008959091C0008091C100FD
:100650008917E1F32FB7F894E92FF0E0E056FF4F48
:1006600080819F5F9F719093C0002FBF08951F925C
:100670000F920FB60F9211248F939F93EF93FF93D6
:1006800080919E0090919F00981759F0E82FF0E01C
:10069000E258FF4F90819CB98F5F8F7180939E00CD
:1006A00001C05598FF91EF919F918F910F900FBED0
:1006B0000F901F9018951F920F920FB60F92112452
:1006C0008F939F93AF93BF93EF93FF93A0EAB0E014
:1006D00091968C919197E82FF0E09CB1E056FF4FF6
:1006E00090838F5F8F7191968C93FF91EF91BF9163
:1006F000AF919F918F910F900FBE0F901F90189503
:10070000CF93C82F80E26DDF8C2F82958F708A3057
:1007100010F4805D01C0895C64DF8C2F8F708A309B
:1007200010F4805D01C0895CCF915BCF8AE059CF26
:10073000282F30E0205331092A30310510F480533E
:1007400008959FE9980F963010F4875508959FEB10
:10075000980F963010F4875308958FEF089580E036
:1007600090E017C0CF93DF931F92CDB7DEB7682F0D
:1007700080E090E069830DD06981861731F080E0D8
:1007800090E00F90DF91CF910BC00F90DF91CF9150
:100790000895E199FECF8EBBE09A99278DB3089515
:1007A000262FE199FECF1CBA8EBB2DBB0FB6F89455
:0E07B000E29AE19A0FBE01960895F894FFCFE9
:0207BE00FF003A
:00000001FF
