:100000009BC0EAC2BEC0BDC03DC2BBC0BAC088C3AF
:1000100063C3B7C0B6C0B5C0B4C098C2B2C0B1C0A7
:10002000B0C0AFC0AEC0ADC0ACC04B4559207265CA
:10003000672046004B45595441502047656E657214
:1000400069632076312E30204A4D20323031370A14
:100050000052455345540A00434647206E6F2046E0
:10006000206265666F72652048454C500A004572F3
:10007000726F720A007265733A2072657365740A52
:100080000064203A2064756D7020656570726F6D34
:10009000200A0021207878203A2053657420636F6D
:1000A0006E66696720746F206865782076616C756C
:1000B00065207878200A00436F6D6D616E64730A65
:1000C0003F3A2053686F770A683A2068656C700A77
:1000D00000434647206E6F7700434647206E6578A1
:1000E00074004346472053657400202020202020C0
:1000F000202000454550524F4D3A2054616720441E
:100100006174610A00454520737620736B69700A3B
:1001100000454520737620004545206C642000454D
:1001200045206672200045452069735F696E004571
:100130004520696E690A000011241FBECFE5D1E099
:10014000DEBFCDBF8DE790E09BBD8ABD8EB58B60D5
:100150008EBD89B7806489BF10E0A0E6B0E0E8E218
:10016000F9E002C005900D92A236B107D9F721E05F
:10017000A2E6B0E001C01D92A230B207E1F7E5D0DF
:10018000D1C33ECF809174008093730080FF03C081
:1001900096988E9A01C08E988091730081FF03C05B
:1001A000C198B99A01C0B9988091730082FF03C0C9
:1001B000C398BB9A01C0BB988091730083FF03C0B2
:1001C00094988C9A01C08C988091730084FF03C02E
:1001D000C098B89A01C0B8988091730085FF03C099
:1001E000C298BA9A01C0BA988091730086FF03C082
:1001F000C498BC9A01C0BC988091730087FF03C06B
:1002000095988D9A01C08D98D9D282EE90E032D225
:1002100080917300BDD284EF91E029C1CFD289EDE6
:1002200090E028D280917400B3C2C8D281ED90E0F2
:1002300021D280917300ACC20F931F93CF93DC0146
:100240002C91243611F1FC01253650F4213209F1AC
:100250002F3309F050C0E2DFCF911F910F91E5CF0E
:10026000283619F02237C1F146C0A8D287EB90E0BA
:1002700001D2A4D283E990E0FDD1A0D281E890E040
:10028000F9D19CD285E790E023C0CF911F910F91C7
:1002900019C391E08F01090F111DD8018C91803293
:1002A00011F49F5FF7CF76D2C82F8F3F71F0F8011E
:1002B000818170D28F3F49F0C295C07F8C0F8093AF
:1002C0007400CF911F910F91A9CF78D28EE690E064
:1002D000CF911F910F91CEC18181853661F48281CA
:1002E000833749F4FED04EDF80917300BCD2CF91AA
:1002F0001F910F91F6C0CF911F910F910895D0D10A
:10030000882311F1D6D1E09172008A3029F08D3026
:1003100019F0883079F40AC0F0E0EE59FF4F1082EE
:1003200082E690E089DF109272000895EE2361F07A
:10033000E15008C0EF3040F4AE2FB0E0AE59BF4FEF
:100340008C93EF5FE093720008951F92CDB7DEB7F4
:10035000789472D184E390E08DD130D2B0D070D255
:10036000809374000FDF88EC90E081D0B12CE12CF9
:10037000F12C10E0CC24C394D12CC1DFCE01019626
:10038000B7D0882309F459C08981082F069580FDCC
:1003900050C00F3551F5F39483E0F81266C0112375
:1003A00001F1809174009FEF910F983048F49FEF16
:1003B000910F960101C0220F9A95EAF7822B0DC08A
:1003C00095EF910F983048F495EF910F960101C089
:1003D000220F9A95EAF720958223809374001EDFFE
:1003E00044C088E590E046D140C0063439F4E39437
:1003F00083E0E81206C019DF11DF03C0F12C10E022
:1004000034C0F12C10E080EB800F8A3060F4B11022
:1004100002C011EB01C01BEB100FD0D18AE290E0BB
:1004200029D1812FB5D10056023038F4BB24B394C2
:1004300004C00056023008F4B12C6ED0882351F06D
:1004400081E590E017D19EDE809173000CD280E9A7
:1004500091E00DD06ED0882309F48FCF10927400F4
:1004600091DE80917300FFD188CFE12CCCCF9093A7
:100470007600809375008091750090917600892BAD
:10048000D1F708951F920F920FB60F9211248F93F8
:100490009F938091750090917600892B49F080910F
:1004A0007500909176000197909376008093750087
:1004B0009F918F910F900FBE0F901F90189580B74E
:1004C000826080BF83B7826083BF89E186BF89B7BE
:1004D000816089BF85B7826085BF8BB780648BBF21
:1004E0000895D19AD99884EF91E0C1DFD198089509
:1004F000FC0190917D00892F817090FF0CC09FB707
:10050000F89480917C00808380917D008E7F809321
:100510007D009FBF81E0089590917D00892F8270BA
:1005200091FF06C080917D008D7F80937D0081E0EA
:10053000089590917D00892F847092FF06C080916C
:100540007D008B7F80937D0081E008951F920F9244
:100550000FB60F9211242F933F938F939F93809107
:100560007B00882319F0815080937B00809160008C
:10057000C99B06C010927A00109279008FEF21C0BB
:10058000882349F081508C3E80F490917D009260E8
:1005900090937D000AC08091790090917A00019635
:1005A00090937A00809379008FEF209179003091B9
:1005B0007A002139314028F090917D009460909329
:1005C0007D00809360009F918F913F912F910F90BC
:1005D0000FBE0F901F9018951F920F920FB60F929B
:1005E00011242F938F939F9380917800880FC8993F
:1005F0008160809378009091770020917B00222386
:1006000011F09F5F01C091E027E020937B009830BC
:1006100049F490917D00916090937D008095809346
:100620007C0090E0909377009F918F912F910F9095
:100630000FBE0F901F9018958AB188698AB983B14F
:10064000866083B912B889E189B908952FB7F89403
:100650005D9B02C08CB90CC09091BF00E92FF0E007
:10066000E258FF4F80839F5F9F739093BF00559A1E
:100670002FBF0895CF93DF93EC01FE01849188236F
:1006800019F0E4DF2196F9CFDF91CF910895209101
:10069000BF009091BE0081E0291301C080E0089561
:1006A000209101019091000181E0291301C080E0B7
:1006B000089590910001809101018917E1F32FB70E
:1006C000F894E92FF0E0E054FF4F80819F5F9F7323
:1006D000909300012FBF08951F920F920FB60F92B3
:1006E00011248F939F93EF93FF938091BE0090917D
:1006F000BF00981759F0E82FF0E0E258FF4F9081C3
:100700009CB98F5F8F738093BE0001C05598FF9195
:10071000EF919F918F910F900FBE0F901F901895A2
:100720001F920F920FB60F9211248F939F93AF9346
:10073000BF93EF93FF93A1E0B1E08C91E82FF0E03D
:100740009CB1E054FF4F90838F5F8F738C93FF9128
:10075000EF91BF91AF919F918F910F900FBE0F902E
:100760001F9018958A3010F4805D0895895C089573
:10077000CF93C82F80E26ADF8C2F82958F70F2DFD3
:1007800065DF8C2F8F70EEDFCF9160CF8AE05ECF78
:10079000EFDFFCCF90ED980F9A3060F09FE9980F53
:1007A000963010F4875508959FEB980F963020F4FB
:1007B00087530895892F08958FEF089568DF811179
:1007C000FDCF08958FE291E055DF6FEF80E090E07C
:1007D0009CD065E588E790E098D065E589E790E0F2
:1007E00094C0CF9386E291E045DF89E790E086D020
:1007F000C1E0853509F0C0E08C2FCADF8C2FCF9186
:1008000008950F931F93CF93ECDF882369F000E0E6
:1008100010E0C0E0C80172D08F3F41F0CF5F0F5FA2
:100820001F4FCC33B9F702C0CDDFC0E08FE191E0BC
:1008300021DF8C2FADDF8C2FCF911F910F91089569
:10084000CF9388E191E016DFDCDF882331F090E080
:10085000855C9F4F53D0C82F01C0C0E08C2F98DF1C
:100860008C2FCF9108951F93CF93DF93182F81E1A1
:1008700091E000DF812F8CDFC4DFC82F882379F05F
:1008800090E0855C9F4F3AD0811306C085E091E0EF
:10089000DF91CF911F91EECECB3309F4C0E0D0E0D1
:1008A00065E5CE018050904030D06FEFCE018F5F74
:1008B0009F4F2BD0612FCE01845C9F4FDF91CF9152
:1008C0001F9123C0CF93DF9383EF90E0D3DEC0E08E
:1008D000D0E08AEE90E0CEDECE01805090400ED087
:1008E00047DFCE01845C9F4F09D052DF67DF21963E
:1008F000CC33D10571F7DF91CF910895E199FECF07
:100900008EBBE09A99278DB30895262FE199FECFEB
:100910001CBA8EBB2DBB0FB6F894E29AE19A0FBEBB
:0809200001960895F894FFCF41
:02092800FF00CE
:00000001FF
