:100000005AC0EBC27DC07CC03EC27AC079C08AC3F0
:1000100065C376C075C074C073C099C271C070C02A
:100020006FC06EC06DC06CC06BC04B45592072650F
:10003000672046004572726F720A007265733A203B
:1000400072657365740A002120782079207A3A203D
:1000500053657420636F6E66696720782079207A13
:100060000A00436F6D6D616E64730A3F3A205368F6
:100070006F770A683A2068656C700A00434647202B
:100080006E6F7700434647206E657874004B455984
:100090005441502076312E30204A4D2032303134B8
:1000A0000A00434647204C6F6164004F1B27320013
:1000B0000D090501000011241FBECFE5D1E0DEBF10
:1000C000CDBF8DE790E09BBD8ABD8EB58B608EBDA8
:1000D00089B7806489BF10E0A0E6B0E0E8ECF7E003
:1000E00002C005900D92A236B107D9F710E0A2E642
:1000F000B0E001C01D92A63CB107E1F70BD162C38D
:100100007FCFCF93E0917800E0937500F0E0E55564
:10011000FF4F8491807CE0917700E0937400F0E0E1
:10012000E555FF4FC491C073C80FE0917600E0938E
:100130007300F0E0E555FF4FE491EF70CE0FC0FF84
:1001400003C08E9A969801C08E98C1FF03C0B99AD9
:10015000C19801C0B998C2FF03C0BB9AC39801C03F
:10016000BB98C3FF03C08C9A949801C08C98C4FFBD
:1001700003C0B89AC09801C0B898C5FF03C0BA9A26
:10018000C29801C0BA98C6FF03C0BC9AC49801C007
:10019000BC98C7FF03C08D9A959801C08D9879D2FD
:1001A0008111FDCF82EA90E067D280917300DCD2AA
:1001B00080917400D9D280917500D6D28C2FD4D280
:1001C000E9D284EF91E0CF9153C1789436D28DE893
:1001D00090E052D275C15DD28111FDCF84E890E0EC
:1001E0004BD280917600C0D280917700BDD28091B1
:1001F0007800BAD2CFC24DD28111FDCF8CE790E00A
:100200003BD280917300B0D280917400ADD28091C6
:100210007500AAD2BFC23DD28111FDCF82E690E027
:100220002BD237D28111FDCF87E490E025D231D295
:100230008111FDCF8BE390E01FC22BD28111FDCF46
:1002400084E390E019C2FC0180818F3349F018F4F7
:10025000813249F00895883629F0823751F10895A6
:10026000BADFC9CFD8CF91E08381803209F090E026
:1002700081E02181203209F080E08923C9F0858165
:100280008032B1F4228120532A30E0F494819053DB
:100290009430C0F4868180538430A0F437813111CA
:1002A00011C020937600909377008093780093CFCD
:1002B000C4CF8181853631F48281833719F412D11C
:1002C00020DF10C10895EED1882319F1F4D1909167
:1002D00072008A3029F08D3019F0883081F40BC01B
:1002E000E92FF0E0EE59FF4F108282E690E0ABDF9D
:1002F000109272000895992361F0915008C09F30C8
:1003000040F4E92FF0E0EE59FF4F80839F5F909318
:100310007200089500D0CDB7DEB757DF80E090E0DF
:100320003BD2082F8093760081E090E035D2182FE1
:100330008093770082E090E02FD2809378000A309B
:1003400010F010927600153010F010927700853082
:1003500010F010927800D5DEE12CF12C10E0B3DF24
:10036000CE010196C6D0882309F466C08981082F82
:10037000069590EA900F9A8380FD5AC00F3509F0D8
:100380003FC0F39483E0F8123DC01123B1F01B305D
:1003900028F48FEF810F809376000FC01F3028F470
:1003A00085EF810F8093770008C01F3031F0143142
:1003B00020F480EF810F80937800609176006A309E
:1003C00018F480E090E0F0D180917700853078F4E7
:1003D000823041F480917600882311F0863011F448
:1003E000109277006091770081E090E0DDD160911C
:1003F0007800653018F482E090E0D6D1ECDE02C0DF
:1004000010E0F12C80EB800F8A3060F4E11002C024
:1004100011EB01C01BEB100F8AE290E02DD1812F70
:10042000A3D1B8D19A81923038F4EE24E39404C079
:100430008A81823008F4E12C70D0811162DE7AD09A
:10044000882309F48CCF10927600109277001092D6
:10045000780060E080E090E0A7D16091770081E0D3
:1004600090E0A2D16091780082E090E09DD177CFBA
:1004700090937A00809379008091790090917A002E
:10048000892BD1F708951F920F920FB60F92112466
:100490008F939F938091790090917A00892B49F0F6
:1004A0008091790090917A00019790937A008093DF
:1004B00079009F918F910F900FBE0F901F9018950C
:1004C00080B7826080BF83B7826083BF89E186BFC7
:1004D00089B7816089BF85B7826085BF8BB780642B
:1004E0008BBF0895D19AD99884EF91E0C1DFD1985C
:1004F00008952091810020FF0EC02FB7F89430910D
:100500008000FC013083809181008E7F8093810088
:100510002FBF81E0089580E008958091810081FFE0
:1005200007C0809181008D7F8093810081E00895D4
:1005300080E008958091810082FF07C08091810052
:100540008B7F8093810081E0089580E008951F9261
:100550000F920FB60F9211242F933F938F939F9377
:1005600080917F00882319F0815080937F00209133
:100570006000C99B06C010927E0010927D002FEF94
:1005800021C0222349F021502C3E80F4809181002B
:100590008260809381000AC080917D0090917E00EE
:1005A000019690937E0080937D002FEF80917D00D7
:1005B00090917E008139914028F080918100846083
:1005C00080938100209360009F918F913F912F91A4
:1005D0000F900FBE0F901F9018951F920F920FB69D
:1005E0000F9211242F938F939F9380917C00880FFB
:1005F000C899816080937C0090917B0020917F005E
:10060000222311F09F5F01C091E027E020937F003B
:10061000983049F490918100916090938100809589
:100620008093800090E090937B009F918F912F9119
:100630000F900FBE0F901F9018958AB188698AB9E4
:1006400083B1866083B912B883E389B908952FB75F
:10065000F8945D9B02C08CB90DC09091A300E92F66
:10066000F0E0EE57FF4F808381E0890F8F71809318
:10067000A300559A2FBF0895CF93DF93EC01FE019D
:100680008491882319F0E3DF2196F9CFDF91CF9190
:1006900008952091A3009091A20081E0291301C048
:1006A00080E008952091C5009091C40081E0291355
:1006B00001C080E008959091C4008091C500891721
:1006C000E1F32FB7F894E92FF0E0EC55FF4F80816C
:1006D0009F5F9F719093C4002FBF08951F920F9248
:1006E0000FB60F9211248F939F93EF93FF938091F6
:1006F000A2009091A300981759F0E82FF0E0EE5770
:10070000FF4F90819CB98F5F8F718093A20001C0D1
:100710005598FF91EF919F918F910F900FBE0F9081
:100720001F9018951F920F920FB60F9211248F935E
:100730009F93AF93BF93EF93FF93A5ECB0E08C91A1
:10074000E82FF0E09CB1EC55FF4F90838F5F8F71E5
:100750008C93FF91EF91BF91AF919F918F910F90EB
:100760000FBE0F901F901895CF93C82F80E26FDFB8
:100770008C2F82958F708A3010F4805D01C0895C67
:1007800066DF8C2F8F708A3010F4805D01C0895C29
:10079000CF915DCF8AE05BCFE199FECF1FBA8EBBD0
:1007A000E09A99278DB30895262FE199FECF1CBAC0
:1007B0001FBA8EBB2DBB0FB6F894E29AE19A0FBE1A
:0807C00001960895F894FFCFA3
:0207C800FF0030
:00000001FF
