:100000009FC002C3C2C0C1C055C2BFC0BEC0C7C32B
:100010009FC3BBC0BAC0B9C0B8C0B0C2B6C0B5C03B
:10002000B4C0B3C0B2C0B1C0B0C023006F004B4574
:1000300059207265672046004B455954415020476E
:10004000656E65726963205247422076312E3120F9
:100050004A4D20323032310A0052455345540A008D
:10006000434647206E6F2046206265666F726520AA
:1000700048454C500A004572726F720A00726573EF
:10008000203A2072657365740A0064203A20647512
:100090006D7020656570726F6D0A00212078782080
:1000A0003A2053657420636F6E66696720746F2011
:1000B0006865782076616C75652078780A00436FF2
:1000C0006D6D616E64730A68203A2068656C700A11
:1000D0003F203A2053686F770A00434647206E6FEF
:1000E0007700434647206E657874004346472053A7
:1000F00065740020202020202020200045455052FB
:100100004F4D3A2054616720446174610A004545AF
:1001100020737620736B69700A0045452073762042
:10012000004545206C64200045452066722000454E
:10013000452069735F696E00454520696E690A0054
:1001400011241FBECFE5D1E0DEBFCDBF8DE790E02B
:100150009BBD8ABD8EB58B608EBD89B7806489BF1B
:1001600010E0A0E6B0E0E8EBF9E002C005900D92E7
:10017000A236B107D9F720E0A2E6B0E001C01D9297
:10018000A33DB207E1F7D6D015C43ACF80917400F1
:100190008093730080FF03C096988E9A01C08E985A
:1001A0008091730081FF03C0C198B99A01C0B998CA
:1001B0008091730082FF03C0C398BB9A01C0BB98B3
:1001C0008091730083FF03C094988C9A01C08C982F
:1001D0008091730084FF03C0C098B89A01C0B8989A
:1001E0008091730085FF03C0C298BA9A01C0BA9883
:1001F0008091730086FF03C0C498BC9A01C0BC986C
:100200008BEE90E085D28091730004D384EF91E06F
:1002100046C182EE90E07CD280917400FBC28AEDF0
:1002200090E076D280917300F5C20F931F93CF9325
:10023000DC012C91243601F1FC01253650F42132E9
:1002400069F02F3309F04CC0E4DFCF911F910F917B
:10025000E6CF283629F02237A1F142C091E010C044
:100260008EEB90E055D28BE990E052D28AE890E094
:100270004FD28DE790E021C0CF911F910F9160C3C5
:100280008F01090F111DD8018C91803211F49F5FED
:10029000F7CFC2D2C82F8F3F71F0F8018181BCD255
:1002A0008F3F49F0C295C07F8C0F80937400CF912F
:1002B0001F910F91AECF86E790E0CF911F910F91E4
:1002C00027C28181853661F48281833749F421D147
:1002D0005DDF8091730005D3CF911F910F9119C1FC
:1002E000CF911F910F910895EAD1882311F11DD26A
:1002F000E09172008A3029F08D3019F0883079F45D
:100300000AC0F0E0EE59FF4F108282E690E08DDFE8
:10031000109272000895EE2361F0E15008C0EF30B2
:1003200040F4AE2FB0E0AE59BF4F8C93EF5FE09337
:10033000720008951F92CDB7DEB7789495D188E307
:1003400090E0E6D1D4D0BAD2809374001FDF88EC5D
:1003500090E0A5D010E0F12CB12CE12CCC24C3947A
:10036000D12CC2DFCE010196DBD0882309F47DC0F9
:100370008981082F069580FD6CC00F3559F51260F4
:10038000B39483E0B81289C0EE2001F1809174002B
:100390009FEF9E0D973048F49FEF9E0D960101C090
:1003A000220F9A95EAF7822B0DC095EF9E0D98309B
:1003B00048F495EF9E0D960101C0220F9A95EAF739
:1003C000209582238093740024DF67C080E690E04C
:1003D0009FD163C0063441F41460F39483E0F812B3
:1003E00006C01DDF16DF03C0B12CE12C56C0B12CB6
:1003F000E12C80EB800F873070F410FD03C091EB8F
:10040000E92E02C08BEBE82EE00E8EE290E080D168
:100410008E2D00D219C0083551F411FF15C08CE2A1
:1004200090E076D195988D9A84E690E00BC00935DE
:1004300059F411FF09C08AE290E06AD195988D9A2B
:1004400080EB94E02CD08D980056023070F411604F
:100450000CC00F3549F020F4063439F41B7F05C079
:10046000023618F41E7F01C01D7F6ED0882351F024
:1004700089E590E04DD18ADE8091730032D280E927
:1004800091E00DD06ED0882309F46BCF10927400E8
:100490007DDE8091730025D264CFF12CAACF90939A
:1004A0007600809375008091750090917600892B7D
:1004B000D1F708951F920F920FB60F9211248F93C8
:1004C0009F938091750090917600892B49F08091DF
:1004D0007500909176000197909376008093750057
:1004E0009F918F910F900FBE0F901F90189580B71E
:1004F000826080BF83B7826083BF89E186BF89B78E
:10050000816089BF85B7826085BF8BB780648BBFF0
:100510000895D19AD99884EF91E0C1DFD1980895D8
:10052000FC0190917D00892F817090FF0CC09FB7D6
:10053000F89480917C00808380917D008E7F8093F1
:100540007D009FBF81E0089590917D00892F82708A
:1005500091FF06C080917D008D7F80937D0081E0BA
:10056000089590917D00892F847092FF06C080913C
:100570007D008B7F80937D0081E008951F920F9214
:100580000FB60F9211242F933F938F939F938091D7
:100590007B00882319F0815080937B00C99B06C0A3
:1005A00010927A00109279008FEF23C08091600042
:1005B000882349F081508C3E80F490917D009260B8
:1005C00090937D000AC08091790090917A00019605
:1005D00090937A00809379008FEF20917900309189
:1005E0007A002139314028F090917D0094609093F9
:1005F0007D00809360009F918F913F912F910F908C
:100600000FBE0F901F9018951F920F920FB60F926A
:1006100011242F938F939F9380917800880FC8990E
:100620008160809378009091770020917B00222355
:1006300011F09F5F01C091E027E020937B0098308C
:1006400049F490917D00916090937D008095809316
:100650007C0090E0909377009F918F912F910F9065
:100660000FBE0F901F9018958AB188698AB983B11F
:10067000866083B912B889E189B981E080937E00F0
:10068000E1ECF0E0118A108A1092C0001092BF00D5
:1006900008952FB7F8945D9B04C08CB910927E002A
:1006A0000BC09091C000E92FF0E0E158FF4F80832C
:1006B0009F5F9F739093C000559A2FBF089520911C
:1006C000D2009091D10081E0291301C080E008950B
:1006D0008FB7F8949091C0009F5F2091BF008FBFAB
:1006E0009F7381E0921380E00895CF93C82FF0DFCD
:1006F000882359F085B78F7A85BF85B7806285BF1B
:10070000889585B78F7D85BFF2CF8C2FCF91C1CFD4
:10071000CF93DF93EC01FE018491882319F0E5DF8C
:100720002196F9CFDF91CF9108959091D1008091DA
:10073000D2009817E1F32FB7F894E92FF0E0EF53C8
:10074000FF4F80819F5F9F709093D1002FBF0895CE
:100750001F920F920FB60F9211248F939F93EF93D6
:10076000FF938091BF009091C000891759F0E82F46
:10077000F0E0E158FF4F90819CB98F5F8F738093B9
:10078000BF0004C0559881E080937E00FF91EF91F7
:100790009F918F910F900FBE0F901F9018951F92F1
:1007A0000F920FB60F9211248F939F93AF93BF9325
:1007B000EF93FF93A1ECB0E051968C915197E82F05
:1007C000F0E09CB1EF53FF4F90838F5F8F73519692
:1007D0008C93FF91EF91BF91AF919F918F910F906B
:1007E0000FBE0F901F9018958A3010F4805D089509
:1007F000895C0895CF93C82F80E277DF8C2F829594
:100800008F70F2DF72DF8C2F8F70EEDFCF916DCFA4
:100810008AE06BCFEFDFFCCF90ED980F9A3060F05D
:100820009FE9980F963010F4875508959FEB980F25
:10083000963020F487530895892F08958FEF0895F7
:1008400088E391E065DF6FEF80E090E0A6D065E59A
:1008500088E790E0A2D065E589E790E09EC0CF935D
:100860008FE291E055DF89E790E090D0C1E08535D7
:1008700009F0C0E08C2FCEDF8C2FCF9108950F931D
:100880001F93CF93ECDF882369F000E010E0C0E015
:10089000C8017CD08F3F41F0CF5F0F5F1F4FCC333B
:1008A000B9F702C0CDDFC0E088E291E031DF8C2FE4
:1008B000B1DF8C2FCF911F910F910895CF9381E2DB
:1008C00091E026DFDCDF882331F090E0855C9F4FEC
:1008D0005DD0C82F01C0C0E08C2F9CDF8C2FCF9142
:1008E00008951F93CF93DF93182F8AE191E010DFD3
:1008F000812F90DFC4DFC82F882379F090E0855CDA
:100900009F4F44D0181306C08EE091E0DF91CF9145
:100910001F91FECECB3309F4C0E0D0E065E5CE01F7
:10092000805090403AD06FEFCE018F5F9F4F35D00F
:10093000612FCE01845C9F4FDF91CF911F912DC01D
:10094000EF92FF920F931F93CF938CEF90E0E0DE36
:1009500080E0E82E80E0F82E0CE310E0CCE383EF9B
:1009600090E0D6DEC70112D045DFC8010FD052DFBC
:10097000C1508FEFE81AF80A0F5F1F4FC111EFCF78
:10098000CF911F910F91FF90EF900895E199FECFC5
:100990008EBBE09A99278DB30895262FE199FECF5B
:1009A0001CBA8EBB2DBB0FB6F894E29AE19A0FBE2B
:0809B00001960895F894FFCFB1
:0209B800FF003E
:00000001FF
